:100000000C945C000C946E000C946E000C946E00CA
:100010000C946E000C946E000C946E000C946E00A8
:100020000C946E000C946E000C946E000C946E0098
:100030000C946E000C946E000C946E000C946E0088
:100040000C9400010C946E000C946E000C946E00E5
:100050000C946E000C946E000C946E000C946E0068
:100060000C946E000C946E00000000080002010069
:100070000003040700000000000000000000000072
:10008000250028002B0000000000240027002A0083
:10009000040404040404040402020202020203032E
:1000A0000303030301020408102040800102040836
:1000B000102001020408102011241FBECFEFD8E049
:1000C000DEBFCDBF21E0A0E0B1E001C01D92A931AB
:1000D000B207E1F70E944A010C9460020C94000000
:1000E00090E0FC01EC55FF4F249180579F4FFC019D
:1000F0008491882399F090E0880F991FFC01EA57BA
:10010000FF4FA591B491FC01E458FF4F8591949164
:100110008FB7F894EC91E22BEC938FBF089590E0A9
:10012000FC01E859FF4F2491FC01EC55FF4F34913D
:10013000FC01E057FF4FE491EE23C9F0222339F090
:10014000233001F1A8F4213019F1223029F1F0E037
:10015000EE0FFF1FE458FF4FA591B4918FB7F894AD
:10016000EC91611126C030953E233C938FBF0895DA
:100170002730A9F02830C9F0243049F78091800059
:100180008F7D03C0809180008F7780938000DFCFC8
:1001900084B58F7784BDDBCF84B58F7DFBCF809115
:1001A000B0008F778093B000D2CF8091B0008F7D68
:1001B000F9CF3E2BDACF3FB7F8948091150190919B
:1001C0001601A0911701B091180126B5A89B05C092
:1001D0002F3F19F00196A11DB11D3FBFBA2FA92FC6
:1001E000982F8827BC01CD01620F711D811D911DC3
:1001F00042E0660F771F881F991F4A95D1F708952F
:100200001F920F920FB60F9211242F933F938F934B
:100210009F93AF93BF938091110190911201A09190
:100220001301B09114013091100123E0230F2D37F9
:1002300058F50196A11DB11D209310018093110165
:1002400090931201A0931301B093140180911501B2
:1002500090911601A0911701B09118010196A11D6E
:10026000B11D8093150190931601A0931701B093CF
:100270001801BF91AF919F918F913F912F910F9056
:100280000FBE0F901F90189526E8230F0296A11D10
:10029000B11DD2CF789484B5826084BD84B581606D
:1002A00084BD85B5826085BD85B5816085BD809141
:1002B0006E00816080936E001092810080918100B9
:1002C00082608093810080918100816080938100B1
:1002D000809180008160809380008091B100846073
:1002E0008093B1008091B00081608093B0008091D4
:1002F0007A00846080937A0080917A008260809393
:100300007A0080917A00816080937A0080917A00EF
:10031000806880937A001092C10082E00E94700091
:1003200083E00E94700084E00E94700085E00E94DB
:10033000700090E0292E90E0392E40910E015091EE
:100340000F0161E04115510509F060E0862E912C06
:1003500090920D0180920C0180910A0190910B0105
:1003600020910801309109014115510521F00097B4
:1003700021F0E12C13C00097E1F32115310531F094
:100380004115510509F498C0009799F7EE24E394BC
:10039000E0910601F0910701EF2B59F7AE2CB12C3B
:1003A000B0920501A09204014115510539F0009762
:1003B00029F02115310529F0D12C0BC0211531056B
:1003C000D9F3DD24D394E0910601F0910701EF2BDE
:1003D00099F70D2D10E01093030100930201452BB6
:1003E00071F0892B51F0232B41F0FF24F39480917D
:1003F000060190910701892B71F0F12C0CC0892B1B
:10040000E1F7232BD1F7FF24F3948091060190911B
:100410000701892B91F3CF2DD0E0D0930101C09338
:10042000000182E00E948F006E2D83E00E948F0009
:100430006D2D84E00E948F006F2D85E00E948F005B
:100440000E94DB002B013C0184EFC82EDD24D394F5
:10045000E12CF12C0E94DB006419750986099709CB
:10046000683E734081059105A8F321E0C21AD108C6
:10047000E108F10888EE480E83E0581E611C711CEB
:10048000C114D104E104F10429F790920F01809284
:100490000E01B0920B01A0920A0110930901009382
:1004A0000801D0930701C09306012114310409F417
:1004B00044CF0E94000041CF009709F067CF59CF89
:0404C000F894FFCFDE
:00000001FF
