:100000000C9434000C9446000C9446000C9446006A
:100010000C9446000C9446000C9446000C94460048
:100020000C9446000C9446000C9446000C94460038
:100030000C9446000C9446000C9446000C94460028
:100040000C9446000C9446000C9446000C94460018
:100050000C9446000C9446000C9446000C94460008
:100060000C9446000C94460011241FBECFEFD8E03C
:10007000DEBFCDBF21E0A0E0B1E001C01D92A43100
:10008000B207E1F70E9476020C94B3020C940000D0
:1000900080E284B98CE78AB9089583B1982F917072
:1000A00090931001109211018695982F9170909362
:1000B0000001109201018695982F917090930C0188
:1000C00010920D018695982F917090930A011092CD
:1000D0000B018695817080930201109203010895AF
:1000E0000F931F93CF93E0910A01F0910B0130978A
:1000F00021F5A0910C01B0910D01109709F46FC08A
:1001000060910001709101016115710541F000914C
:100110001001109111010115110509F4C0C11092CF
:100120001301109212016115710509F093C120911C
:10013000020130910301C0E0C1C0609100017091E3
:100140000101A0910C01B0910D016115710519F526
:1001500081E090E09093130180931201C0E120911F
:10016000020130910301109749F56115710509F4F9
:10017000E8C000911001109111010115110509F05D
:1001800084C11092050110920401309709F0E0C07B
:10019000DF0180E0A5C0109731F4009110011091AB
:1001A0001101012BA9F21092130110921201C0E06B
:1001B00020910201309103011097B9F210920501CC
:1001C00010920401309709F4C3C080E02115310575
:1001D00009F48FC06115710509F08BC01EC0109223
:1001E0001301109212012091020130910301211597
:1001F000310509F456C0C0E0609100017091010121
:10020000109205011092040180E06115710509F05A
:1002100060C02115310509F4CDC040911001509105
:100220001101452B09F060C041E050E050930F01EF
:1002300040930E0154E0309709F08CC061157105B0
:1002400009F004C10091100110911101011511056F
:1002500009F0CAC040E01093090100930801AB2BDC
:1002600009F064C0232B09F427C191E0672B09F43E
:1002700020C12091100130911101232B09F490E04D
:10028000292F30E03093070120930601852B8C2B1A
:10029000842B892B880F880F8BB9CF911F910F91D9
:1002A0000895A0911001B0911101109709F0EAC0D2
:1002B00060910001709101019D01C0E081E090E03A
:1002C000909305018093040188E06115710509F49C
:1002D000A0CF0091100110911101012B09F0B2C0C3
:1002E0002115310509F466C0309719F4109709F00B
:1002F0009EC050E000E010E010930F0100930E014B
:100300002115310509F097CF309721F52091100183
:10031000309111012115310509F064C0AB2B09F4AE
:100320006AC0109209011092080140E06115710540
:1003300061F1EF2B51F52115310509F096CF90E0D1
:10034000A1CF1092050110920401309709F4B6C0B4
:1003500080E05BCF61157105E1F40091100110910F
:100360001101012BB1F401E010E010930901009399
:100370000801AB2B09F09BC042E0EF2B09F472CFD0
:10038000672B19F421153105D1F291E021E030E01D
:1003900079CFAB2B69F1A0911001B0911101AB2B7A
:1003A00009F0BFCFA1E0B0E0B0930901A09308012C
:1003B00042E0BCCF309709F05AC01097B1F591E0F8
:1003C00020E000911001109111010115110509F4AF
:1003D00064C0592F550F550F90930E0120930F01B4
:1003E000012B49F020E030E042E001E010E033CFA3
:1003F00021153105A1F461157105E1F1209110017C
:10040000309111012115310551F021E030E0309398
:1004100009012093080120E030E042E0AECF1092C5
:1004200009011092080140E0A8CF20E030E06115FA
:10043000710509F05ECF4091100150911101452BDB
:1004400009F057CF54E001E010E056CF00E010E093
:1004500040E001CFC0E00091100110911101209106
:10046000020130910301012B09F4CACE27CF20E00D
:1004700030E03FCF109209011092080120E030E0F7
:1004800040E07BCFA0E0B0E0B6CE81E090E090937A
:1004900005018093040188E020CF90E09ACF81E0AD
:1004A00090E09093130180931201C0E1D8CF91E0C6
:1004B00042E021E030E0E6CE9B0164CFDF0180E046
:1004C000A8CE2D982FEF87EA91E6215080409040EA
:1004D000E1F700C000002D9A2FEF87EA91E6215046
:1004E00080409040E1F700C00000089580E284B9A8
:1004F0008CE78AB983B1982F917090931001109274
:1005000011018695982F917090930001109201012E
:100510008695982F917090930C0110920D018695FD
:10052000982F917090930A0110920B01869581701B
:1005300080930201109203010E9470002D982FEF0A
:1005400087EA91E6215080409040E1F700C000002A
:100550002D9A2FEF87EA91E6215080409040E1F7F5
:0A05600000C00000C7CFF894FFCFE1
:00000001FF
