:100000000C9461000C9473000C9473000C947300B6
:100010000C9473000C9473000C9473000C94730094
:100020000C9473000C9473000C9473000C94730084
:100030000C9473000C9473000C9473000C94730074
:100040000C9480010C9473000C9473000C94730056
:100050000C9473000C9473000C9473000C94730054
:100060000C9473000C94730000000000240027001F
:100070002A0000000000250028002B0000000000DE
:1000800023002600290004040404040404040202DA
:100090000202020203030303030301020408102007
:1000A0004080010204081020010204081020000012
:1000B0000008000201000003040700000000000027
:1000C000000011241FBECFEFD8E0DEBFCDBF21E07E
:1000D000A0E0B1E001C01D92AB31B207E1F70E9490
:1000E000CA010C9472030C940000833081F028F450
:1000F000813099F08230A9F008958730A9F08830D6
:10010000C9F08430B1F4809180008F7D03C080916C
:1001100080008F7780938000089584B58F7784BDA9
:10012000089584B58F7DFBCF8091B0008F77809349
:10013000B00008958091B0008F7DF9CFCF93DF9309
:10014000282F30E0F901E255FF4F8491F901E6567E
:10015000FF4FD491F901EA57FF4FC491CC23A1F08E
:1001600081110E947500EC2FF0E0EE0FFF1FE458A4
:10017000FF4FA591B491EC91ED2381E090E009F45B
:1001800080E0DF91CF91089580E090E0FACF1F9357
:10019000CF93DF93282F30E0F901E255FF4F849190
:1001A000F901E656FF4FD491F901EA57FF4FC49188
:1001B000CC23A9F0162F81110E947500EC2FF0E0DE
:1001C000EE0FFF1FEE58FF4FA591B4918FB7F89433
:1001D000EC91111108C0D095DE23DC938FBFDF9125
:1001E000CF911F910895DE2BF8CFCF93DF9390E04E
:1001F000FC01E656FF4F24918A579F4FFC018491E2
:100200008823D1F090E0880F991FFC01E859FF4F37
:10021000A591B491FC01EE58FF4FC591D4916111A5
:100220000EC09FB7F8948C91E22FE0958E238C93AB
:100230002881E223E8839FBFDF91CF9108958FB794
:10024000F894EC91E22BEC938FBFF6CF3FB7F89484
:100250008091170190911801A0911901B0911A0194
:1002600026B5A89B05C02F3F19F00196A11DB11D11
:100270003FBFBA2FA92F982F8827BC01CD01620F4D
:10028000711D811D911D42E0660F771F881F991F08
:100290004A95D1F708958F929F92AF92BF92CF92D5
:1002A000DF92EF92FF920E9426014B015C018DE7E5
:1002B000C82ED12CE12CF12C0E9426016819790955
:1002C0008A099B09683E734081059105A8F321E0E6
:1002D000C21AD108E108F10888EE880E83E0981E62
:1002E000A11CB11CC114D104E104F10429F7FF9051
:1002F000EF90DF90CF90BF90AF909F908F90089538
:100300001F920F920FB60F9211242F933F938F934A
:100310009F93AF93BF938091130190911401A0918B
:100320001501B09116013091120123E0230F2D37F2
:1003300058F50196A11DB11D209312018093130160
:1003400090931401A0931501B093160180911701A9
:1003500090911801A0911901B0911A010196A11D67
:10036000B11D8093170190931801A0931901B093C8
:100370001A01BF91AF919F918F913F912F910F9053
:100380000FBE0F901F90189526E8230F0296A11D0F
:10039000B11DD2CF789484B5826084BD84B581606C
:1003A00084BD85B5826085BD85B5816085BD809140
:1003B0006E00816080936E001092810080918100B8
:1003C00082608093810080918100816080938100B0
:1003D000809180008160809380008091B100846072
:1003E0008093B1008091B00081608093B0008091D3
:1003F0007A00846080937A0080917A008260809392
:100400007A0080917A00816080937A0080917A00EE
:10041000806880937A001092C10061E088E00E94B9
:10042000F50061E089E00E94F50061E08AE00E9449
:10043000F50061E08BE00E94F50061E08CE00E9435
:10044000F50061E08DE00E94F50060E082E00E942E
:10045000F50060E083E00E94F50060E084E00E9427
:10046000F50060E085E00E94F50060E086E00E9413
:10047000F50080E0C82E80E0D82EAA24A394B12CE9
:1004800082E00E949E008C019093090180930801F4
:1004900083E00E949E007C019093110180931001E3
:1004A00084E00E949E004C0190930D0180930C010A
:1004B00085E00E949E00EC0190930F0180930E0155
:1004C00086E00E949E0090930B0180930A01E11444
:1004D000F10481F02097D1F08114910409F09AC0C1
:1004E00061E0009709F060E0552453940097A9F467
:1004F000512C13C08114910409F488C0209781F114
:1005000061E0009709F060E0009729F461E0F0CF26
:1005100060E0009769F755245394252D30E030931F
:10052000070120930601E114F10419F081149104EC
:10053000C9F4209709F452C0772473940097D9F432
:100540000115110509F050C0E114F10439F48114CA
:10055000910459F477247394009769F4712C0BC0BB
:1005600060E0D9CF01151105C9F32097B9F77724B9
:100570007394009799F7272D30E03093050120936D
:1005800004010115110509F04DC0E114F10409F44D
:1005900070C0209719F4009709F46DC0811491047C
:1005A00061F166246394009709F455C0612C53C02F
:1005B000EF2809F463C0CD2B09F058C0FF24F39451
:1005C000012B09F063C008C0CD2B09F44FC0FF24F4
:1005D000F394892B09F05AC0F12C58C0011511056C
:1005E00009F4B2CF0097C1F0E114F10409F0B6CFDD
:1005F0008114910409F4B2CFB8CF0115110519F196
:10060000D5CFEF2899F5012B39F3E1CF011511056D
:1006100009F47ECF60E06CCFB0920501A092040196
:1006200077247394E114F10409F0B3CF209709F013
:10063000BDCF009701F50115110509F0B7CF811461
:10064000910409F0B3CF209709F4B0CF66246394E6
:10065000009709F4ABCF262D30E0309303012093AF
:100660000201892809F4A4CFCD2B59F6FF24F39475
:100670000DC0009721F366246394EDCF012B09F0A0
:10068000A3CFFF24F394CD2B09F4A6CF8F2D90E0B8
:10069000909301018093000188E00E94C700652DBE
:1006A00089E00E94C700672D8AE00E94C700662D7E
:1006B0008BE00E94C7006F2D8CE00E94C70060E0B5
:1006C0008DE00E94C7000E944B0161E08DE00E9416
:1006D000C7000E944B01C114D10409F4D1CE0E947D
:0806E0000000CECEF894FFCF1C
:00000001FF
