:100000000C9434000C9449000C9449000C94490061
:100010000C9449000C9449000C9449000C9449003C
:100020000C9449000C9449000C9449000C9449002C
:100030000C9449000C9449000C9449000C9449001C
:100040000C9449000C9449000C9449000C9449000C
:100050000C9449000C9449000C9449000C944900FC
:100060000C9449000C94490011241FBECFEFD8E036
:10007000DEBFCDBF11E0A0E0B1E0E0ECFFE002C0E8
:1000800005900D92AC31B107D9F70E9449050C9447
:10009000DE070C94000087E68093C40088E180931B
:1000A000C10008958091C00087FFFCCF8091C000FF
:1000B00084FD08C08091C00083FD07C08091C60008
:1000C00090E008958FEF9FEF08958EEF9FEF0895D2
:1000D0005F9A85ED8A95F1F700005F9808959BB1CE
:1000E000937C9BB984FD5A9A85FD5B9A86FD5C9A48
:1000F00087FD5D9A5F9A85ED8A95F1F700005F981C
:100100000895CF93C82F0E946F008C2F8295807F17
:10011000CF910C946F00CF93C82F5E980E946F0010
:100120008C2F8295807FCF910C946F00CF93C82F36
:100130005E9A0E946F008C2F8295807FCF910C94E5
:100140006F0083E30E948B0082E30E948B0088E2B1
:100150000E948B008EE00E948B0086E00E948B0044
:1001600081E00E948B0080E80E948B008FED9EE270
:100170000197F1F700C00000089581E00E948B0014
:1001800080E80E948B008FED9EE20197F1F700C09E
:1001900000000895CF93DF93EC018881882331F02C
:1001A00021960E94960089918111FBCFDF91CF911A
:1001B00008950F931F93CF93DF93CDB7DEB72897A2
:1001C0000FB6F894DEBF0FBECDBF1A821982FE01B2
:1001D000339626E0DF011D922A95E9F74AE0BE0139
:1001E0006F5F7F4F0E94A9078981882351F08E019C
:1001F0000E5F1F4F0E949600F80181918F018111BF
:10020000F9CF28960FB6F894DEBF0FBECDBFDF91B1
:10021000CF911F910F9108958EEF8AB980E284B932
:100220000895FF920F931F93CF93DF938C018091DA
:10023000C00087FFFCCF8091C00084FD07C0809183
:10024000C00083FF61C02EEF3FEF02C02FEF3FEFF2
:10025000C0E0D0E02C32310591F12E32310509F4A5
:1002600044C0822FF801EC0FFD1F2083C031D1055F
:100270000CF421960E9496008091C00087FFFCCF6D
:100280008091C00084FD16C08091C00083FD27C00E
:100290002091C60030E02D303105E1F6CE01F801A5
:1002A000E80FF91F1082CE01DF91CF911F910F91BE
:1002B000FF9008952FEF3FEF2C32310571F6209714
:1002C00089F021978C2F8068F82E8F2D0E948B004B
:1002D00080E20E9496008F2D0E948B00CDCF2EEFE2
:1002E0003FEFB8CF80E8F82EF0CF81E00E948B007E
:1002F00080E80E948B008FED9EE20197F1F700C02D
:100300000000C0E0D0E0B8CF2091C60030E02D3032
:10031000310509F09DCF80E090E0C0E0D0E0BFCF94
:100320003F924F925F926F927F928F929F92AF9285
:10033000BF92CF92DF92EF92FF920F931F93CF93D2
:10034000DF934B01DC01EC91EE2309F44EC0EC018C
:10035000219620E030E040E050E060E070E080E096
:1003600090E001E00E945707322E432E542E652E56
:10037000762EB72FA82FF92F02E00E9457075901B8
:100380006A017B018C01232D342D452D562D672DBF
:100390007B2F8A2F9F2F0E947007AE2EB12CC12C6D
:1003A000D12CE12CF12C00E010E00E947007A0EDB0
:1003B0000E947907E991E111D4CFBDE28B16910437
:1003C00011F40E941007DF91CF911F910F91FF90C0
:1003D000EF90DF90CF90BF90AF909F908F907F90E5
:1003E0006F905F904F903F90089520E030E040E0A4
:1003F00050E060E070E080E090E0DFCF2F923F922D
:100400004F925F926F927F928F929F92AF92BF9224
:10041000CF92DF92EF92FF920F931F93CF93DF93D0
:10042000CDB7DEB72A970FB6F894DEBF0FBECDBFAB
:1004300029833A87942E852E562E472E382E292E24
:100440001E830D833701F801EE0DFF1D1082A0E021
:100450000E948E0721F5C70101979A838983F801CD
:10046000E80FF91F80E3808389819A812A960FB66D
:10047000F894DEBF0FBECDBFDF91CF911F910F91DA
:10048000FF90EF90DF90CF90BF90AF909F908F90B4
:100490007F906F905F904F903F902F9008952981AB
:1004A0003A85A0E00E948E070CF05AC00E94100707
:1004B00029833A87942E852E562E472E382E292EA4
:1004C0008DE290E098878F83FC83EB8399819987F5
:1004D00002C069807A80F3013197FA83E9838AE068
:1004E000A82EB12CC12CD12CE12CF12C00E010E075
:1004F00029853A85492D582D652D742D832D922DF2
:100500000E948006205DEB81FC812293FC83EB83BB
:1005100029853A85492D582D652D742D832D922DD1
:100520000E94820629873A87942E852E562E472EC2
:10053000382E292EA0E00E948E0759F68F819885CB
:100540008D9709F091CFF3013297FA83E983ED811A
:10055000FE8189819A81E80FF91F8DE2808384CF23
:100560008BE290E098878F83AFCF96ED980F923013
:1005700030F08F3221F0982F977F953211F490E070
:1005800008958FEF9FEF08952F923F924F925F92C1
:100590006F927F928F929F92AF92BF92CF92DF9293
:1005A000EF92FF920F931F93CF93DF93CDB7DEB7F8
:1005B0002D970FB6F894DEBF0FBECDBF9E838D83FF
:1005C0007A8369835C834B83FC0180818D3209F4DB
:1005D00027C11D861C86EBE2F0E0FB87EA87812CB1
:1005E000912C4D815E812C853D85420F531FDA0190
:1005F0001C91212F30E0C901C0970A9708F032C141
:10060000C4010196ED81FE81E80FF91F01C001963A
:100610004C01DF011191212F30E0B90160537109C4
:100620006A307105A0F386ED810F823050F01F32E1
:1006300041F0177F153229F022242A94BFEFB987A1
:10064000D4C0222E3987F4013196F887EF831C92AB
:10065000DA01EC91EE2309F407C12C853D852F5F6B
:100660003F4F8D819E81280F391F3D872C8720E0C9
:1006700030E040E050E060E070E080E090E001E0D9
:100680000E945707322E432E542E652E762EB72FFA
:10069000A82FF92F02E00E94570759016A017B0138
:1006A0008C01232D342D452D562D672D7B2F8A2F20
:1006B0009F2F0E947007AE2EB12CC12CD12CE12CA3
:1006C000F12C00E010E00E947007A0ED0E94790775
:1006D000AC85BD85ED91BD87AC87E111D0CFEA85B2
:1006E000FB85BD9709F4B8C0E981FA812083318385
:1006F000428353836483758386839783ED81FE8170
:100700002F813885E20FF31FE081ED3209F494C0A8
:10071000ABE2B0E0BA83A9838E2F90E0C0970A972E
:1007200008F0ABC0AF81B88511962D813E81A20F34
:10073000B31F2D91822F90E0C0970A97D0F321111B
:100740007BCFEE2309F478CF8F8098843FEF831A14
:10075000930A8D819E81880D991D9E838D8330E043
:1007600040E050E060E070E080E090E001E00E9456
:100770005707522E632E742E852E962EB72FA82F34
:10078000F92F02E00E94570759016A017B018C0191
:10079000252D362D472D582D692D7B2F8A2F9F2FE4
:1007A0000E947007AE2EB12CC12CD12CE12CF12C63
:1007B00000E010E00E947007A0ED0E947907AD8173
:1007C000BE81ED91BE83AD83E111D0CFE981FA8185
:1007D000BD9709F444C0EB81FC81208331834283BF
:1007E00053836483758386839783822D99852D96A1
:1007F0000FB6F894DEBF0FBECDBFDF91CF911F9132
:100800000F91FF90EF90DF90CF90BF90AF909F90AF
:100810008F907F906F905F904F903F902F900895B2
:1008200021E030E03D872C87EDE2F0E0FB87EA87AE
:1008300088248394912CD5CEF4013296F887EF83E7
:10084000ED81FE812F813885E20FF31FE0818DE27B
:1008500090E09A83898360CF0E94100745CF0E9461
:100860001007B9CFDA01DFCE20E030E040E050E001
:1008700060E070E080E090E032CF2E2F60CF8F926A
:100880009F92AF92BF92CF92DF92EF92FF920F931F
:100890001F93CF93DF93DC01FB01EA012B3231057B
:1008A00009F4C5C04B01FC012C3231050CF045C0E8
:1008B0002532310509F49AC02A32310509F06CC09D
:1008C000DB01AC901196BC9011971296CC901297C8
:1008D0001396DC9013971496EC9014971596FC9051
:1008E000159716960C91169717961C9120813181B9
:1008F0004281538164817581868197810E94270698
:10090000288339834A835B836C837D838E839F83B3
:1009100020E030E040E050E060E070E080E090E017
:10092000DF91CF911F910F91FF90EF90DF90CF90CB
:10093000BF90AF909F908F9008952D323105A9F10F
:100940002F32310549F5DB01AC901196BC9011971F
:100950001296CC9012971396DC9013971496EC9005
:1009600014971596FC90159716960C911697179656
:100970001C919501A601B701C801A0E00E948E0755
:1009800059F0208131814281538164817581868152
:1009900097810E948206B4CF2FEF3FEF4FEF5FEFBA
:1009A0006FEF7FEF8FEF9FEFBBCF208131814281CF
:1009B00053816481758186819781D401AC901196B1
:1009C000BC9011971296CC9012971396DC901397C7
:1009D0001496EC9014971596FC90159716960C911A
:1009E000169717961C910E9485078ACF2081318126
:1009F0004281538164817581D401AC901196BC9081
:100A000011971296CC9012971396DC901397149628
:100A1000EC9014971596FC90159716960C911697D6
:100A200017961C91868197810E94800669CF2C9130
:100A300011963C91119712964C91129713965C91D6
:100A4000139714966C91149715967C91159716969A
:100A50008C91169717969C91A080B180C280D3800C
:100A6000E480F580068117810E94700749CFCF93FB
:100A7000DF93EC0180EC0E948B008881882331F0A9
:100A800021960E94960089918111FBCFDF91CF9131
:100A90000895CF93DF93CDB7DEB7E1970FB6F89403
:100AA000DEBF0FBECDBF8EEF8AB980E284B90E944F
:100AB000A10087E68093C40088E18093C100CE0145
:100AC00001960E941101AE01465E5F4FBE016E5D50
:100AD0007F4FCE0101960E94C4028F3F2FEF9207F5
:100AE00009F4A6C09C01AE014E5E5F4FBE01665E7A
:100AF0007F4FCE0182960E943F0449018920809455
:100B000009F4A0C09A888B887C886D885E884F889D
:100B1000388C298C198A292D382D472D562D652D75
:100B2000742D832D922DA0E00E948E0789F480E31E
:100B3000888BEFE0F0E0FBA7EAA781E090E08C0F64
:100B40009D1FEAA5FBA58E0F9F1F0E943705B7CFFB
:100B5000292D382D472D562D652D742D832D922D41
:100B6000A0E00E948E070CF068C00E941007922E31
:100B7000832E742E652E562E472E382E292E2DE2CA
:100B800030E039AB28ABFE017196FDA7ECA720E160
:100B900030E03FA72EA704C08AA59BA59FA78EA7DC
:100BA000EEA5FFA53197FBA7EAA78AE0A82EB12CF6
:100BB000C12CD12CE12CF12C00E010E0292D382D96
:100BC000472D562D652D742D832D922D0E94800664
:100BD000205DECA5FDA52293FDA7ECA7292D382DBE
:100BE000472D562D652D742D832D922D0E94820642
:100BF000922E832E742E652E562E472E382E292E99
:100C0000A0E00E948E0741F628A939A92D323105AE
:100C100009F093CF8EA59FA502979BA78AA7E1E035
:100C2000F0E0EC0FFD1FE80FF91F9DE2908385CFE8
:100C300080E091E00E94370542CF8BE290E099ABD3
:100C400088ABA1CF8FE091E00E94370538CFDF93CA
:100C5000CF931F930F939A9DF02D219FF00D8B9DA5
:100C6000F00D8A9DE02DF10D039FF00D029FE00D28
:100C7000F11D4E9DE00DF11D5E9DF00D4F9DF00D9F
:100C80007F936F93BF92AF925F934F93D5010E9472
:100C90009A078B01AC01D7010E949A07EB01E80F7C
:100CA000F91FD6010E9477062F913F91D6010E942D
:100CB0009A07C60FD71FE81FF91FAF91BF910E9477
:100CC00077062F913F910E949A07C60FD71FE81F02
:100CD000F91FD6010E949A07E60FF71F9801BE017F
:100CE000CF0111240F911F91CF91DF9108950E94A0
:100CF0009A07460F571FC81FD91F08F43196089549
:100D0000689401C0E894F92FF12B12F00C94B4060A
:100D1000A0E0B0E0EEE8F6E00C942607092E05947A
:100D200022F40E941007112392F4F0E80F26FFEF3F
:100D3000E094F09400951095B094C094D094A19450
:100D4000BF0ACF0ADF0AEF0AFF0A0F0B1F0B0E9430
:100D5000BF0607FC0E941007CDB7DEB7ECE00C948D
:100D60004207689401C0E8948F929F92CF93DF93DB
:100D70000E94BF06DF91CF919F908F9008958824A5
:100D80009924F401E401B0E49F93AA279A158B04F7
:100D90009C04ED05FE05CF05D007A10798F4AD2F03
:100DA000DC2FCF2FFE2FE92D982C892E982F872FFF
:100DB000762F652F542F432F322F2227B85031F72B
:100DC000BF9127C01B2EBF91BB27220F331F441F8B
:100DD000551F661F771F881F991F881C991CEE1FBF
:100DE000FF1FCC1FDD1FAA1FBB1F8A149B04EC052D
:100DF000FD05CE05DF05A007B10748F08A189B085E
:100E0000EC09FD09CE09DF09A00BB10B21601A9492
:100E1000E1F62EF49401AF01BE01CD01000C08955E
:100E20006095709580959095309540955095219559
:100E30003F4F4F4F5F4F6F4F7F4F8F4F9F4F0895E3
:100E40002F923F924F925F926F927F928F929F92DA
:100E5000AF92BF92CF92DF92EF92FF920F931F93C8
:100E6000CF93DF93CDB7DEB7CA1BDB0B0FB6F89479
:100E7000DEBF0FBECDBF09942A88398848885F84B9
:100E80006E847D848C849B84AA84B984C884DF802A
:100E9000EE80FD800C811B81AA81B981CE0FD11D0E
:100EA0000FB6F894DEBF0FBECDBFED0108950F93CE
:100EB000083090F0982F872F762F652F542F432FCF
:100EC000322F22270850F4CF220F331F441F551F03
:100ED000661F771F881F991F0A95B2F70F91089513
:100EE0002A0D3B1D4C1D5D1D6E1D7F1D801F911F1A
:100EF00008950024A7FD00942A0F301D401D501DA9
:100F0000601D701D801D901D08952A193B094C0914
:100F10005D096E097F09800B910B08950024A7FDE0
:100F200000942A17300540055005600570058005BE
:100F300090050895A29FB001B39FC001A39F700DBB
:100F4000811D1124911DB29F700D811D1124911DD1
:100F50000895BB274A3031F4992322F4BDE29095DD
:100F600081959F4F0C94B507BB27FB015527AA27F6
:100F7000880F991FAA1FA41710F0A41B8395505126
:100F8000B9F7A05DAA3308F0A95DA193009779F79E
:100F9000B111B1931192CB010C94CE07DC01FC018D
:100FA000672F71917723E1F7329704C07C916D939D
:100FB00070836291AE17BF07C8F30895F894FFCF0E
:100FC000496E76616C69645F696E70757421004466
:0C0FD00069765F62795F7A65726F2100BC
:00000001FF
