:100000000C9434000C9449000C9449000C94490061
:100010000C9449000C9449000C9449000C9449003C
:100020000C9449000C9449000C9449000C9449002C
:100030000C9449000C9449000C9449000C9449001C
:100040000C9449000C9449000C9449000C9449000C
:100050000C9449000C9449000C9449000C944900FC
:100060000C9449000C94490011241FBECFEFD8E036
:10007000DEBFCDBF11E0A0E0B1E0EEEBF2E002C0E8
:1000800005900D92A031B107D9F70E94EC000C94B5
:100090005D010C9400005F9A85ED8A95F1F70000F0
:1000A0005F9808959BB1937C9BB984FD5A9A85FD16
:1000B0005B9A86FD5C9A87FD5D9A5F9A85ED8A95CD
:1000C000F1F700005F980895CF93C82F0E94520067
:1000D0008C2F8295807FCF910C945200CF93C82FA4
:1000E0005E980E9452008C2F8295807FCF910C9455
:1000F0005200CF93C82F5E9A0E9452008C2F829597
:10010000807FCF910C94520083E30E946E0082E3C3
:100110000E946E0088E20E946E008CE00E946E00D9
:1001200086E00E946E0081E00E946E008FED9EE2EC
:100130000197F1F700C00000089581E00E946E0071
:100140008FED9EE20197F1F700C000000895CF9374
:10015000DF93EC018881882331F021960E94790099
:1001600089918111FBCFDF91CF9108950F931F9358
:10017000CF93DF93CDB7DEB728970FB6F894DEBFE5
:100180000FBECDBF1A821982FE01339626E0DF0131
:100190001D922A95E9F74AE0BE016F5F7F4F0E94EA
:1001A00028018981882351F08E010E5F1F4F0E9424
:1001B0007900F80181918F018111F9CF28960FB64E
:1001C000F894DEBF0FBECDBFDF91CF911F910F918D
:1001D00008958CEF8AB90895CF93DF93CDB7DEB73A
:1001E0002F970FB6F894DEBF0FBECDBF8FE0E0E0D3
:1001F000F1E0DE01119601900D928A95E1F78CEF06
:100200008AB90E9484008981882351F08E010E5F93
:100210001F4F0E947900F80181918F018111F9CF60
:1002200000E010E080EC0E946E0080E3800F0E94EE
:100230007900FFEF21EE84E0F15020408040E1F7AB
:1002400000C000000930110559F30F5F1F4FEACFBE
:10025000BB274A3031F4992322F4BDE29095819571
:100260009F4F0C943401BB27FB015527AA27880F09
:10027000991FAA1FA41710F0A41B83955051B9F71A
:10028000A05DAA3308F0A95DA193009779F7B11199
:10029000B1931192CB010C944D01DC01FC01672F4D
:1002A00071917723E1F7329704C07C916D9370834D
:0E02B0006291AE17BF07C8F30895F894FFCF10
:1002BE0044656361646520436F756E7465720000FA
:00000001FF
