:100000000C9434000C9449000C9449000C94490061
:100010000C9449000C9449000C9449000C9449003C
:100020000C9449000C9449000C9449000C9449002C
:100030000C9449000C9449000C9449000C9449001C
:100040000C9449000C9449000C9449000C9449000C
:100050000C9449000C9449000C9449000C944900FC
:100060000C9449000C94490011241FBECFEFD8E036
:10007000DEBFCDBF11E0A0E0B1E0EAE2F1E002C0F6
:1000800005900D92AA30B107D9F70E9468000C9430
:1000900093000C9400000CEF0AB901E004B9089534
:1000A0008F930F934F93289886FD289A42E005D0AE
:1000B0008BB94F910F918F910895880F4A95E9F769
:1000C00008958A95F1F76A95E1F74A95D1F7089571
:1000D000CF93DF93CDB7DEB72A970FB6F894DEBF84
:1000E0000FBECDBF8AE0E0E0F1E0DE0111960190A5
:1000F0000D928A95E1F70E944B007E018BE0E80E9D
:10010000F11C8E010F5F1F4FF80181918F018095C7
:100110000E9450004AE060E080E00E9461000E15FD
:0A0120001F0591F7EECFF894FFCF12
:0A012A003F065B4F666D7D077F6F97
:00000001FF
