:020000020000FC
:1000000000E00FBF08E00EBF0FEF0DBF07D00DD00F
:1000100018D085D09CD098D00AD0FACF0CE70AB976
:1000200000E204B905E005BD0895AA240895A3B02F
:100030000895550C6A95E9F7089556946A95E9F77D
:10004000089500271127222733274427A4FC009571
:10005000002E0094A3FC1095112E1094A2FC209564
:10006000222E2094A1FC3095332E3094A0FC409594
:10007000442E4094F22EF320912E9322F928902EB4
:100080009320F928902E9422F928902C92209322E4
:10009000F928E02CE120E422912C93209422E928F5
:1000A000912E93209420E928912E92229420E928E1
:1000B000902C922093229422E928D12CD322D4226E
:1000C000922C93229422D928902E93209420D928E0
:1000D000902C912092209422D928912C9222932026
:1000E0009420D928C12CC222C320912C9222942280
:1000F000C928902C912092209420C928912E9220DA
:1001000093229422C928B12EB320912E92209420BC
:10011000B928912C922293229420B928089555272A
:10012000B0FC5160550FC0FC5160550FD0FC5160C0
:10013000550FE0FC5160550FF0FC5160552E62E008
:1001400078DF552D5BB908952D9A04D008952D9828
:1001500001D0089530E405B30170E9F301E005BB77
:060160003A95C9F708956D
:00000001FF
