:100000000C9434000C9449000C9449000C94490061
:100010000C9449000C9449000C9449000C9449003C
:100020000C9449000C9449000C9449000C9449002C
:100030000C9449000C9449000C9449000C9449001C
:100040000C9449000C9449000C9449000C9449000C
:100050000C9449000C9449000C9449000C944900FC
:100060000C9449000C94490011241FBECFEFD8E036
:10007000DEBFCDBF11E0A0E0B1E0E2E4F1E002C0FC
:1000800005900D92AA30B107D9F70E9462000C9436
:100090009F000C9400008AB18C6F8AB9209A089551
:1000A000289825B186FB992790F9922B95B99BB199
:1000B00093709BB92BB134E08302C0011124822BD1
:1000C0008BB90895CF93DF93CDB7DEB72A970FB6DC
:1000D000F894DEBF0FBECDBF8AE0E0E0F1E0DE01C4
:1000E000119601900D928A95E1F78AB18C6F8AB9C9
:1000F000209AAE01455F5F4FFE0131968191982FA6
:100100009095289825B196FB882780F9822B85B990
:100110008BB183708BB92BB134E09302C0011124F1
:10012000822B8BB98FEF91EE24E0815090402040DC
:10013000E1F700C000004E175F0701F7DDCFF8942C
:02014000FFCFEF
:0A0142003F065B4F666D7D077F6F7F
:00000001FF
