:020000020000FC
:1000000000E00FBF08E00EBF0FEF0DBF07D00DD00F
:1000100021D052D063D065D00AD0FACF0CE30AB910
:1000200004E004B905E005BD08952227089533B121
:1000300042E00E942200232F39B146E00E942600B0
:10004000232B0895330F4A95E9F7089536954A957D
:10005000E9F70895442455246624772420FD40942C
:1000600021FD509422FD609423FD7094542D5095F1
:10007000052E542D652D60955623672D60955623CA
:10008000152E542D50955521152A542D5521662D88
:1000900060955623252E552D50955621252A542DF1
:1000A00050955621252A542D55215621352E542D53
:1000B00050955721352A0895112730FC1160110FF2
:1000C00020FC1160110F10FC1160110F00FC116079
:1000D000312F42E0B7DF132F1BB908952A9A04D0BD
:1000E00008952A9801D0089538E005B30170E9F326
:0A00F00001E005BB3A95C9F7089539
:00000001FF
