:100000000C945C000C9479000C9479000C947900A9
:100010000C9479000C9479000C9479000C9479007C
:100020000C9479000C9479000C9479000C9479006C
:100030000C9479000C9479000C9479000C9479005C
:100040000C94BF000C9479000C9479000C94790006
:100050000C9479000C9479000C9479000C9479003C
:100060000C9479000C947900000000080002010053
:100070000003040700000000000000000000000072
:10008000250028002B0000000000240027002A0083
:10009000040404040404040402020202020203032E
:1000A0000303030301020408102040800102040836
:1000B000102001020408102011241FBECFEFD8E049
:1000C000DEBFCDBF11E0A0E0B1E0EEEFF3E002C093
:1000D00005900D92AA30B107D9F721E0AAE0B1E06E
:1000E00001C01D92A331B207E1F70E9409010C94EF
:1000F000FD010C94000090E0FC01EC55FF4F2491B1
:1001000080579F4FFC018491882399F090E0880FDD
:10011000991FFC01EA57FF4FA591B491FC01E458E7
:10012000FF4F859194918FB7F894EC91E22BEC936B
:100130008FBF08953FB7F89480910F0190911001FF
:10014000A0911101B091120126B5A89B05C02F3FC7
:1001500019F00196A11DB11D3FBFBA2FA92F982FED
:100160008827BC01CD01620F711D811D911D42E0E8
:10017000660F771F881F991F4A95D1F708951F9220
:100180000F920FB60F9211242F933F938F939F934B
:10019000AF93BF9380910B0190910C01A0910D0141
:1001A000B0910E0130910A0123E0230F2D3758F54D
:1001B0000196A11DB11D20930A0180930B0190931C
:1001C0000C01A0930D01B0930E0180910F0190914D
:1001D0001001A0911101B09112010196A11DB11D54
:1001E00080930F0190931001A0931101B09312011D
:1001F000BF91AF919F918F913F912F910F900FBE23
:100200000F901F90189526E8230F0296A11DB11D8F
:10021000D2CF789484B5826084BD84B5816084BD7A
:1002200085B5826085BD85B5816085BD80916E0094
:10023000816080936E0010928100809181008260C5
:100240008093810080918100816080938100809102
:1002500080008160809380008091B10084608093F1
:10026000B1008091B00081608093B00080917A00ED
:10027000846080937A0080917A00826080937A0013
:1002800080917A00816080937A0080917A00806802
:1002900080937A001092C10082E00E947B0083E08C
:1002A0000E947B0084E00E947B0085E00E947B002E
:1002B00086E00E947B0087E00E947B0088E00E942D
:1002C0007B0000E010E0C0E0D1E04991409580E47F
:1002D00022E030E0042E000C550B90E0BA016823B8
:1002E0007923F901E859FF4FB491F901EC55FF4F1B
:1002F000D490F901E057FF4FE491EE2309F1BB23BD
:1003000059F0B33009F460C008F053C0B13009F4BB
:1003100061C0B23009F462C0F0E0EE0FFF1FE45894
:10032000FF4FE590F490CFB6F894D701EC91AD2D46
:10033000672B09F060C0A095AE23F701A083CFBE64
:10034000959587952F5F3F4F2930310509F0C5CF2F
:100350000E949A004B015C0188EEC82E83E0D82EE3
:10036000E12CF12C0E949A00681979098A099B09ED
:10037000683E734081059105A8F3F1E0CF1AD108DA
:10038000E108F10828EE820E23E0921EA11CB11CA8
:10039000C114D104E104F10429F7B1E0CA30DB074C
:1003A00009F093CF0115110509F48DCF0E940000CB
:1003B0008ACFB730B1F0B830D1F0B43009F0ACCF5B
:1003C000F0918000FF7D03C0F0918000FF77F093F3
:1003D0008000A2CFF4B5FF77F4BD9ECFF4B5FF7DCA
:1003E000FBCFF091B000FF77F093B00095CFF09184
:0E03F000B000FF7DF9CFAE2BA0CFF894FFCF69
:0A03FE007E306D79335B5F707F7312
:00000001FF
