:020000020000FC
:1000000000E00FBF08E00EBF0FEF0DBF05D007D017
:10001000E6E9F0E013D0FFCF0CEF0AB9089533E31F
:1000200013D032E311D038E20FD036E00DD03EE0ED
:100030000BD031E009D030E807D008953591303049
:1000400011F005D0FBCF08955E9804D008955E9A14
:1000500001D00895132F107F169516952BB1237C90
:10006000212B2BB90AD0132F1F70110F110F2BB199
:10007000237C212B2BB901D008955F9A03D05F9880
:1000800001D0089540E800E00A950030E9F74A956C
:100090004030C9F7089548656C6C6F20776F726CBB
:0400A00064210000D7
:00000001FF
