:100000000C9461000C9473000C9473000C947300B6
:100010000C9473000C9473000C9473000C94730094
:100020000C9473000C9473000C9473000C94730084
:100030000C9473000C9473000C9473000C94730074
:100040000C944B010C9473000C9473000C9473008B
:100050000C9473000C9473000C9473000C94730054
:100060000C9473000C94730000000000240027001F
:100070002A0000000000250028002B0000000000DE
:1000800023002600290004040404040404040202DA
:100090000202020203030303030301020408102007
:1000A0004080010204081020010204081020000012
:1000B0000008000201000003040700000000000027
:1000C000000011241FBECFEFD8E0DEBFCDBF21E07E
:1000D000A0E0B1E001C01D92AF30B207E1F70E948D
:1000E00095010C94A8030C940000833081F028F44F
:1000F000813099F08230A9F008958730A9F08830D6
:10010000C9F08430B1F4809180008F7D03C080916C
:1001100080008F7780938000089584B58F7784BDA9
:10012000089584B58F7DFBCF8091B0008F77809349
:10013000B00008958091B0008F7DF9CFCF93DF9309
:10014000282F30E0F901E255FF4F8491F901E6567E
:10015000FF4FD491F901EA57FF4FC491CC23A1F08E
:1001600081110E947500EC2FF0E0EE0FFF1FE458A4
:10017000FF4FA591B491EC91ED2381E090E009F45B
:1001800080E0DF91CF91089580E090E0FACF1F9357
:10019000CF93DF93282F30E0F901E255FF4F849190
:1001A000F901E656FF4FD491F901EA57FF4FC49188
:1001B000CC23A9F0162F81110E947500EC2FF0E0DE
:1001C000EE0FFF1FEE58FF4FA591B4918FB7F89433
:1001D000EC91111108C0D095DE23DC938FBFDF9125
:1001E000CF911F910895DE2BF8CFCF93DF9390E04E
:1001F000FC01E656FF4F24918A579F4FFC018491E2
:100200008823D1F090E0880F991FFC01E859FF4F37
:10021000A591B491FC01EE58FF4FC591D4916111A5
:100220000EC09FB7F8948C91E22FE0958E238C93AB
:100230002881E223E8839FBFDF91CF9108958FB794
:10024000F894EC91E22BEC938FBFF6CF3FB7F89484
:1002500080910B0190910C01A0910D01B0910E01C4
:1002600026B5A89B05C02F3F19F00196A11DB11D11
:100270003FBFBA2FA92F982F8827BC01CD01620F4D
:10028000711D811D911D42E0660F771F881F991F08
:100290004A95D1F708951F920F920FB60F9211242D
:1002A0002F933F938F939F93AF93BF9380910701B9
:1002B00090910801A0910901B0910A0130910601C5
:1002C00023E0230F2D3758F50196A11DB11D209372
:1002D00006018093070190930801A0930901B09350
:1002E0000A0180910B0190910C01A0910D01B09138
:1002F0000E010196A11DB11D80930B0190930C017D
:10030000A0930D01B0930E01BF91AF919F918F917A
:100310003F912F910F900FBE0F901F90189526E8D8
:10032000230F0296A11DB11DD2CF789484B58260AF
:1003300084BD84B5816084BD85B5826085BD85B589
:10034000816085BD80916E00816080936E00109207
:100350008100809181008260809381008091810082
:100360008160809381008091800081608093800013
:100370008091B10084608093B1008091B000816071
:100380008093B00080917A00846080937A0080919D
:100390007A00826080937A0080917A0081608093F5
:1003A0007A0080917A00806880937A001092C10070
:1003B00061E082E00E94F50061E083E00E94F500C8
:1003C00061E084E00E94F50061E085E00E94F500B4
:1003D00061E086E00E94F50061E087E00E94F500A0
:1003E00061E088E00E94F50060E08CE00E94F5008A
:1003F00060E08BE00E94F50060E08AE00E94F5007A
:1004000060E089E00E94F5006624639490E0A92EE4
:1004100090E0B92E8CE00E949E004C019093050163
:10042000809304018BE00E949E007C019093030165
:10043000809302018AE00E949E00EC0190930101EA
:100440008093000189E00E949E00E114F10409F00C
:10045000BAC0009751F18114910411F5209709F069
:10046000C7C0E114F10409F46CC161E0009709F41C
:1004700060E0209721F1C12C009721F5712CE11447
:10048000F104A1F1209709F060C1009709F090C034
:1004900010E077247394E114F10409F4C8C089C012
:1004A000209709F499C060E098C061E0811491043C
:1004B00099F0209709F4A4C0CC24C394A7C0C12C00
:1004C000009779F477247394CC24C394E114F10455
:1004D00069F0CC24C394D6CF209709F08EC0CC24E9
:1004E000C394E114F10489F677247394009709F416
:1004F00005C110E02097D1F011E081149104B1F012
:10050000E114F10409F00BC101E0DD24D39404C12E
:10051000C12C7CC0E114F104A9F0009709F486C055
:1005200010E0209751F781149104B9F42097D9F085
:10053000D12CE114F10409F43FC00097C1F42097D5
:1005400099F51EC0DD24D39410E0009791F311E0DB
:100550008114910459F3209799F6E114F10431F3D1
:10056000DD24D394EACFD12C009709F4CDC08114B7
:100570009104A1F0E114F104C9F000E0209739F0F2
:1005800001E0892809F465C0EF2809F4C5C0FF24FB
:10059000F394892B09F065C0F12C63C0E114F104D8
:1005A00081F000E0209769F701E0B6C001E0B1C03A
:1005B00011E077247394B7CF01E08114910409F01E
:1005C000A8C000E0A6C08114910409F447CF209789
:1005D00019F4009709F067CF61E0209709F098CFF0
:1005E000C12C009779F077247394CC24C39417C05E
:1005F00061E0E114F10409F03CCF009709F062CF0B
:10060000CC24C3948114910409F438CF77247394D3
:10061000E114F10409F0712C209709F07BCFE1146B
:10062000F10409F082C0009709F091CF11E0DD24B8
:10063000D394209709F07DCF01E0DD24D394E11419
:10064000F10409F09ECF01E0DD24D394892809F05C
:100650005BCFEF2809F4A0CFFF24F394CD2B09F052
:100660009BCF662582E00E94C7006C2D662583E043
:100670000E94C700672D662584E00E94C700612F95
:10068000662585E00E94C7006D2D662586E00E94E4
:10069000C700602F662587E00E94C7006F2D662582
:1006A00088E00E94C7000E9426011B012C0184E102
:1006B000C82ED12CE12CF12C0E942601621973095D
:1006C00084099509683E734081059105A8F321E0EE
:1006D000C21AD108E108F10888EE280E83E0381E1E
:1006E000411C511CC114D104E104F10429F7A114E7
:1006F000B10409F48FCE0E9400008CCEDD24D39487
:1007000011E0209709F015CF01E0E114F10409F0A0
:1007100038CF209709F435CFFF24F394A2CFDD24FE
:10072000D394009709F026CF3FCF11E081149104B4
:1007300009F419CFDD24D39411E0009709F01ACF02
:10074000FECECC24C39460E0CCCE77247394E5CE67
:04075000F894FFCF4B
:00000001FF
