:100000000C9461000C9473000C9473000C947300B6
:100010000C9473000C9473000C9473000C94730094
:100020000C9473000C9473000C9473000C94730084
:100030000C9473000C9473000C9473000C94730074
:100040000C9491010C9473000C9473000C94730045
:100050000C9473000C9473000C9473000C94730054
:100060000C9473000C94730000000000240027001F
:100070002A0000000000250028002B0000000000DE
:1000800023002600290004040404040404040202DA
:100090000202020203030303030301020408102007
:1000A0004080010204081020010204081020000012
:1000B0000008000201000003040700000000000027
:1000C000000011241FBECFEFD8E0DEBFCDBF21E07E
:1000D000A0E0B1E001C01D92A931B207E1F70E9492
:1000E000DB010C94EA020C940000833081F028F4C8
:1000F000813099F08230A9F008958730A9F08830D6
:10010000C9F08430B1F4809180008F7D03C080916C
:1001100080008F7780938000089584B58F7784BDA9
:10012000089584B58F7DFBCF8091B0008F77809349
:10013000B00008958091B0008F7DF9CFCF93DF9309
:10014000282F30E0F901E255FF4F8491F901E6567E
:10015000FF4FD491F901EA57FF4FC491CC23A1F08E
:1001600081110E947500EC2FF0E0EE0FFF1FE458A4
:10017000FF4FA591B491EC91ED2381E090E009F45B
:1001800080E0DF91CF91089580E090E0FACF1F9357
:10019000CF93DF93282F30E0F901E255FF4F849190
:1001A000F901E656FF4FD491F901EA57FF4FC49188
:1001B000CC23A9F0162F81110E947500EC2FF0E0DE
:1001C000EE0FFF1FEE58FF4FA591B4918FB7F89433
:1001D000EC91111108C0D095DE23DC938FBFDF9125
:1001E000CF911F910895DE2BF8CFCF93DF9390E04E
:1001F000FC01E656FF4F24918A579F4FFC018491E2
:100200008823D1F090E0880F991FFC01E859FF4F37
:10021000A591B491FC01EE58FF4FC591D4916111A5
:100220000EC09FB7F8948C91E22FE0958E238C93AB
:100230002881E223E8839FBFDF91CF9108958FB794
:10024000F894EC91E22BEC938FBFF6CF3FB7F89484
:100250008091150190911601A0911701B09118019C
:1002600026B5A89B05C02F3F19F00196A11DB11D11
:100270003FBFBA2FA92F982F8827BC01CD01620F4D
:10028000711D811D911D42E0660F771F881F991F08
:100290004A95D1F708958F929F92AF92BF92CF92D5
:1002A000DF92EF92FF920E9426014B015C0180EDEC
:1002B000C82E87E0D82EE12CF12C0E942601681967
:1002C00079098A099B09683E734081059105A8F365
:1002D00021E0C21AD108E108F10888EE880E83E017
:1002E000981EA11CB11CC114D104E104F10429F72A
:1002F000FF90EF90DF90CF90BF90AF909F908F9046
:100300000895682F8EE00E94C70060E08FE00E9491
:10031000C70060E080E10E94C70060E081E10C94CA
:10032000C7001F920F920FB60F9211242F933F9385
:100330008F939F93AF93BF9380911101909112017E
:10034000A0911301B09114013091100123E0230F0B
:100350002D3758F50196A11DB11D209310018093F2
:10036000110190931201A0931301B0931401809195
:10037000150190911601A0911701B09118010196F5
:10038000A11DB11D8093150190931601A093170133
:10039000B0931801BF91AF919F918F913F912F9191
:1003A0000F900FBE0F901F90189526E8230F02960E
:1003B000A11DB11DD2CF789484B5826084BD84B56F
:1003C000816084BD85B5826085BD85B5816085BD50
:1003D00080916E00816080936E0010928100809108
:1003E0008100826080938100809181008160809390
:1003F0008100809180008160809380008091B100B5
:1004000084608093B1008091B00081608093B000DF
:1004100080917A00846080937A0080917A00826073
:1004200080937A0080917A00816080937A00809135
:100430007A00806880937A001092C10061E082E0C7
:100440000E94F50061E083E00E94F50061E084E035
:100450000E94F50061E085E00E94F50060E08BE01D
:100460000E94F50060E086E00E94F50060E087E011
:100470000E94F50060E088E00E94F50060E089E0FD
:100480000E94F50061E08AE00E94F50061E08EE0E4
:100490000E94F50061E08FE00E94F50061E080E1DC
:1004A0000E94F50061E081E10E94F50061E08DE0CD
:1004B0000E94F50080E0A82E80E0B82E8BE00E941C
:1004C0009E008C0190930D0180930C0186E00E94A8
:1004D0009E006C01909305018093040187E00E94C7
:1004E0009E007C01909309018093080188E00E949E
:1004F0009E00EC0190930F0180930E0189E00E9411
:100500009E00CD2B21F0C1E00115110509F0C0E0DE
:100510008C2F90E090930B0180930A01EF2821F03B
:10052000D1E00115110509F4D0E08D2F90E09093F2
:10053000070180930601C114D10429F0FF24F3942C
:100540000115110509F0F12C8F2D90E09093030116
:1005500080930201CD2821F4EE24E394012B09F4C9
:10056000E12C8E2D90E0909301018093000181E0B9
:1005700090E0C11102C090E080E00E9481016E2DE8
:1005800082E00E94C7006F2D83E00E94C7006D2F9C
:1005900084E00E94C7006C2F85E00E94C70061E0E4
:1005A0008AE00E94C70061E08DE00E94C7000E94BF
:1005B0004B0160E08AE00E94C70060E08DE00E948D
:1005C000C7000E944B01A114B10409F477CF0E9427
:0805D000000074CFF894FFCF86
:00000001FF
