:100000000C9434000C9451000C9451000C94510049
:100010000C9451000C9451000C9451000C9451001C
:100020000C9451000C9451000C9451000C9453000A
:100030000C9451000C9451000C9451000C945100FC
:100040000C9451000C9451000C9451000C945100EC
:100050000C9451000C9451000C9451000C945100DC
:100060000C9451000C94510011241FBECFEFD8E026
:10007000DEBFCDBF11E0A0E0B1E0E4EEF3E002C0EE
:1000800005900D92A430B107D9F721E0A4E0B1E0CA
:1000900001C01D92A530B207E1F70E94A9010C949E
:1000A000F0010C9400001F920F920FB60F921124D2
:1000B0008F939F9395B180E2892785B98091000144
:1000C0008B3379F0809100018F5F8093000181E094
:1000D000809304019F918F910F900FBE0F901F90FE
:1000E000189510920001809101018B3331F08091BD
:1000F00001018F5F80930101EACF1092010180918D
:100100000201873131F0809102018F5F80930201FB
:10011000DECF10920201DBCF5F9A85ED8A95F1F771
:1001200000005F9808959BB1937C9BB984FD5A9A17
:1001300085FD5B9A86FD5C9A87FD5D9A5F9A85EDE9
:100140008A95F1F700005F980895CF93C82F0E9419
:1001500093008C2F8295807FCF910C949300CF9346
:10016000C82F5E980E9493008C2F8295807FCF913C
:100170000C949300CF93C82F5E9A0E9493008C2F0B
:100180008295807FCF910C94930083E30E94AF000F
:1001900082E30E94AF0088E20E94AF008CE00E94E0
:1001A000AF0086E00E94AF0081E00E94AF008FEDBB
:1001B0009EE20197F1F700C00000089581E00E94DF
:1001C000AF008FED9EE20197F1F700C000000895A7
:1001D000CF93DF93EC018881882331F021960E9430
:1001E000BA0089918111FBCFDF91CF9108950F93D0
:1001F0001F93CF93DF93CDB7DEB728970FB6F89450
:10020000DEBF0FBECDBF1A821982FE01339626E0F3
:10021000DF011D922A95E9F74AE0BE016F5F7F4F2B
:100220000E94BB018981882351F08E010E5F1F4F10
:100230000E94BA00F80181918F018111F9CF2896AF
:100240000FB6F894DEBF0FBECDBFDF91CF911F91E7
:100250000F9108958CEF8AB980E284B92D980895A2
:10026000E0E8F0E080818C7F8083E1E8F0E080814D
:10027000807E808380818D608083109285001092C3
:1002800084008DE38093890088E0809388007894CF
:10029000EFE6F0E0808182608083B1980895CF938B
:1002A00080E80E94AF0080910201CDEC8C9F812DEF
:1002B0001124869586958695805D0E94BA0080916E
:1002C00002018C9F912D11249695969596952AE082
:1002D000929F80191124805D0E94BA008AE30E94D7
:1002E000BA00809101018C9F812D112486958695FD
:1002F0008695805D0E94BA00809101018C9F912DAE
:1003000011249695969596952AE0929F801911242E
:10031000805D0E94BA008AE30E94BA0080910001C9
:100320008C9F812D1124869586958695805D0E94EF
:10033000BA00809100018C9FC12D1124C695C695ED
:10034000C6959AE0C99F80191124805DCF910C94C5
:10035000BA008CEF8AB980E284B92D980E94C5005A
:100360000E943001809104018823E1F30E944F0133
:1003700010920401F7CFBB274A3031F4992322F4BD
:10038000BDE2909581959F4F0C94C701BB27FB015F
:100390005527AA27880F991FAA1FA41710F0A41B7E
:1003A00083955051B9F7A05DAA3308F0A95DA193D8
:1003B000009779F7B111B1931192CB010C94E00140
:1003C000DC01FC01672F71917723E1F7329704C0BC
:1003D0007C916D9370836291AE17BF07C8F3089547
:0403E000F894FFCFBF
:0403E400041E0A00E9
:00000001FF
