:020000020000FC
:1000000000E00FBF08E00EBF0FEF0DBF07D00DD00F
:1000100024D044D058D05AD00AD0FACF0CE30AB931
:1000200008E204B905E005BD08952227089533B11B
:1000300042E00E942500232F39B146E00E942900AA
:10004000232B220F25FD21600895330F4A95E9F7F0
:10005000089536954A95E9F7089544245524662471
:100060007724882420FD409421FD509422FD609443
:1000700023FD709424FD8094972C542D5095952247
:10008000372C542D50953522262C2420152C542DF8
:1000900050951522052C009404200895112730FC5A
:1000A0001160110F20FC1160110F10FC1160110F75
:1000B00000FC11602B9A90FC2B98312F42E0C5DF99
:1000C000132F1BB908952D9A04D008952D9801D0AF
:1000D000089530E405B30170E9F301E005BB3A95FA
:0400E000C9F70895BF
:00000001FF
