:100000000C9434000C9449000C9449000C94490061
:100010000C9449000C9449000C9449000C9449003C
:100020000C9449000C9449000C9449000C9449002C
:100030000C9449000C9449000C9449000C9449001C
:100040000C9449000C9449000C9449000C9449000C
:100050000C9449000C9449000C9449000C944900FC
:100060000C9449000C94490011241FBECFEFD8E036
:10007000DEBFCDBF11E0A0E0B1E0EAE5F1E002C0F3
:1000800005900D92AE30B107D9F70E94A2000C94F2
:10009000AB000C940000CF93C82F82958F700E9404
:1000A0007D008C2F8F70CF910C947D005E980C9406
:1000B0004B005E9A0C944B0083E30E94560082E34F
:1000C0000E94560088E20E9456008CE00E94560072
:1000D00086E00E94560081E00C945600CF93DF9397
:1000E000EC018991882319F00E945900FACFDF9121
:1000F000CF9108950CEF0AB908958F934F9342E082
:1001000008D04BB1437C482B4BB907D04F918F910E
:100110000895880F4A95E9F708955F9A03D05F988C
:1001200001D0089580E840E04A954030E9F78A958B
:100130008030C9F708958A95F1F76A95E1F74A95F5
:10014000D1F708950E947A000E945C0080E091E05F
:0A0150000E946E00FFCFF894FFCF6D
:0E015A0048656C6C6F20576F726C642100005A
:00000001FF
